:020000040800F2
:1000000038160020D5180008790200087B02000885
:100010007F02000883020008870200080000000039
:100020000000000000000000000000008B0200083B
:100030008D020008000000008F02000891020008F5
:10004000EF180008EF180008EF180008EF18000874
:10005000EF180008EF180008EF180008EF18000864
:10006000EF180008EF180008EF180008EF18000854
:10007000EF180008EF180008EF180008EF18000844
:10008000EF180008EF180008EF180008EF18000834
:10009000EF180008EF180008EF180008EF18000824
:1000A000EF180008EF180008EF180008EF18000814
:1000B000EF180008FF120008EF180008EF180008FA
:1000C000EF180008EF180008EF180008EF180008F4
:1000D000EF1800084B1800083D0F0008EF18000843
:1000E000EF180008EF180008EF180008EF180008D4
:1000F000EF180008EF180008EF180008EF180008C4
:10010000EF180008EF180008EF180008EF180008B3
:10011000EF180008EF180008EF1800089D0F0008FE
:10012000EF180008EF180008EF180008EF18000893
:1001300000F002F800F05AF80AA090E8000C82449F
:100140008344AAF10107DA4501D100F04FF8AFF27C
:10015000090EBAE80F0013F0010F18BFFB1A43F0A5
:1001600001031847F03C0000103D00000A444FF026
:10017000000C10F8013B13F0070408BF10F8014B06
:100180001D1108BF10F8015B641E05D010F8016B4B
:10019000641E01F8016BF9D113F0080F1EBF10F8AF
:1001A000014BAD1C0C1B09D16D1E58BF01F801CBD2
:1001B000FAD505E014F8016B01F8016B6D1EF9D555
:1001C0009142D6D37047000000230024002500266A
:1001D000103A28BF78C1FBD8520728BF30C148BFAA
:1001E0000B6070471FB51FBD10B510BD03F0B9F807
:1001F0001146FFF7F7FF00F009F803F0D7F803B452
:10020000FFF7F2FF03BC01F0C5FA000001F058FA55
:1002100015490868804715490868804714490868E7
:10022000804700F0DDFD00F0B5FA00F04BFA41F632
:100230001F4140F2F31001F035F840F27121052022
:1002400001F0CCF80FE000F0A2FF0A4800780A287D
:1002500009DB00200749087001F0D2F80249C8689C
:10026000804700F01CF9EEE718000020280000206D
:10027000480000207C020020704700BFFEE700BF5E
:10028000FEE700BFFEE700BFFEE77047704770471C
:10029000704700000CB50020019000906C48006889
:1002A00040F480306A49086000BF6948006800F483
:1002B000003000900198401C0190009818B90198F6
:1002C000B0F5A06FF1D16248006800F4003010B1C1
:1002D0000120009001E0002000900098012843D107
:1002E0005C48006840F010005A4908600846006801
:1002F00020F0030008600846006840F00200086033
:10030000534840685249486008464068486008467B
:10031000406840F4806048600846406820F47C10E3
:1003200048600846406840F4F81048600846006895
:1003300040F08070086000BF4548006800F0007021
:100340000028F9D04248406820F003004049486046
:100350000846406840F00200486000BF3C484068E2
:1003600000F00C000828F9D10CBD10B5FFF792FF82
:1003700010BD10B53648006840F0010034490860EF
:1003800008464068344908403149486008460068DA
:10039000324908402E4908600846006820F4802051
:1003A00008600846406820F4FE0048604FF41F00D3
:1003B0008860FFF7DAFF4FF000602949086010BD40
:1003C00010B5002100200022214B5B6803F00C01D6
:1003D00021B1042906D0082928D107E0214B224C5D
:1003E000236027E0214B204C236023E0184B5B68FF
:1003F00003F47010164B5B6803F48032022303EBA6
:10040000904022B91A4B4343174C23600DE0104B28
:100410005B6803F4003323B1124B4343124C236057
:1004200003E0124B4343104C236003E00D4B0E4C92
:10043000236000BF00BF064B5B68C3F303130D4C82
:10044000E15C094B1B68CB40074C236010BD0000EA
:1004500000100240002002400000FFF8FFFFF6FEFF
:1004600008ED00E000127A00040000200024F400EF
:1004700000093D0008000020014601F4004060B181
:10048000B1F5004F02D14FF400407047481E4FF6BF
:10049000FF73584082B21046F7E70846F5E72DE9AA
:1004A000F04F87B00024A146A34600200690824664
:1004B00005900490924948688047044691484481D9
:1004C0002046FFF7D9FF8346584603F0DFFB019033
:1004D00003F090FB8C4A8D4BCDE9020103F0A2F9A9
:1004E000074600228A4B03F09DF9054602F068FF9B
:1004F00006908849069803F0E1FB039003F07AFB2D
:1005000007460022844B02F08DFF054602F058FF9B
:100510000690069803F09AFB1FFA80F904F4004055
:1005200028B1022000FB19907649488002E0754806
:10053000A0F8029079494868804782467148A0F83F
:1005400008A05046FFF798FF0590059803F09EFB22
:10055000019003F04FFB0546714A724B03F062F9BC
:1005600007460022704B03F005F8CDE9020102F0C6
:1005700027FF04906D49049803F0A0FB039003F05B
:1005800039FB05460022644B02F04CFF074602F09F
:1005900017FF04900AF4004018B100205949088060
:1005A00004E0049803F052FB564908805548808ABD
:1005B0005F4908805F4841685D480088884707B008
:1005C000BDE8F08F014601F4003058B1B1F5003FAD
:1005D00002D14FF400307047481E574B80EA0302A7
:1005E0001046F8E70846F6E72DE9F04F87B04FF0E0
:1005F0000009CB4600200690002482460590049016
:100600003F498868804781464846FFF7DBFF8346BD
:10061000584603F03BFB019003F0ECFA474A484B85
:10062000CDE9020103F0FEF807460022384B03F043
:10063000F9F8054602F0C4FE06903649069803F024
:100640003DFB054603F002FB84B209F4003028B1FB
:10065000022000FB14402B49C88001E02948C480D7
:100660002E498868804782465046FFF7ABFF0590C9
:10067000059803F00BFB019003F0BCFA0746284AEB
:10068000284B03F0CFF8054600224FF0824302F0DA
:1006900071FFCDE9020102F093FE04902349049812
:1006A00003F00CFB04900AF4003018B10020154947
:1006B000888004E0049803F0C9FA1249888007B0E2
:1006C000BDE8F08F10B5A6B0002014E019AA411CB7
:1006D000515C09022DF810103DF8102019AB1B5C7D
:1006E0001A43014600EBD1735B101E33054C24F80E
:1006F0001320811CC8B20A28E8DB26B010BD000018
:1007000080020020C00E0020D31742CEFBFF683FBE
:10071000000008400000C8420000E03F8C020020BA
:10072000FCA9F1D24D6200400000E04000803B4552
:100730000000002098020020FFFF03005FD0A52CDE
:100740000100493F08B50121102001F06DFC4FF474
:100750008060ADF8000010208DF8030003208DF8B4
:10076000020069462D4801F0A3F94FF480612B483F
:1007700001F04BFA08BD01202949086070470020AC
:1007800027490860704726480068C0432549C1F8DA
:10079000A801704708B50121182001F045FC4FF46D
:1007A0009060ADF8000010208DF8030003208DF854
:1007B00002006946194801F07BF90120ADF80000FC
:1007C00003208DF8020028208DF8030069461348A5
:1007D00001F06EF90121114801F019FA4FF480611E
:1007E0000E4801F012FA80210C4801F010FA0320A3
:1007F000ADF8000010208DF8030003208DF80200F2
:100800006946094801F054F90121074801F0FFF950
:100810000221054801F0FBF908BD0000001001406D
:10082000A801224200002242000C014008B501212B
:10083000082001F0F9FBC020ADF8000010208DF871
:10084000030003208DF802006946FC4801F030F9EE
:10085000C021FA4801F0D9F908BD10B5F748006881
:1008600020F07040F54908600846006840F04050AC
:1008700008600120F2490860F249C1F8980104209B
:1008800000F037FF0020EE490860042000F031FF3F
:100890000020EC49C1F8980110BD10B5E748006888
:1008A00020F07040E54908600846006840F040507C
:1008B00008600020E249091F0860E249C1F89C0174
:1008C000042000F016FF0120DD49091F0860DD4902
:1008D000C1F89C01042000F00CFF10BD10B50024ED
:1008E000D648006820F07040D44908600846006887
:1008F00040F0004008600120D149086000F0F9FE96
:100900000120D049C1F8980100F0F3FE07E0601C17
:10091000C4B2FA2C03DDFFF7C0FF012010BDC848A8
:10092000803800680028F2D1C549091F086000BF5F
:10093000F4E710B50020C249091F0860BF480068ED
:1009400020F07040BD4908600846006840F0405003
:1009500008600020BB49C1F89C01022000F0C9FEDC
:100960000120B749091F0860022000F0C2FE0020E4
:10097000B449C1F8980110BD10B50020B049091F55
:100980000860AE48006820F07040AC490860084636
:10099000006840F0405008600120AA49C1F89C015D
:1009A000022000F0A6FE0120A549091F08600220D0
:1009B00000F09FFE0020A349C1F8980110BD70B55A
:1009C00004469E48006820F070409C490860084634
:1009D000006840F04050086000209949091F0860F5
:1009E00000251DE0E00918B101209549086002E0EA
:1009F0000020934908606006040E022000F079FE92
:100A000001208F49091F0860022000F072FE0020BB
:100A10008C49C1F89801022000F06BFE681CC5B239
:100A2000082DDFDB70BD70B50546002483480068E3
:100A300020F07040814908600846006840F000409E
:100A40000860002617E000207D49091F0860022089
:100A500000F04FFE01207B49C1F898016006040EAA
:100A600077488038006808B1601CC4B2012000F0EB
:100A700040FE701CC6B2082EE5DB15B9FFF77CFFFF
:100A800001E0FFF756FF204670BD08B501210820A0
:100A900001F0CAFA4FF44060ADF8000010208DF864
:100AA000030003208DF802006946644801F000F855
:100AB0004FF44061614801F0A8F808BD10B55F48E7
:100AC000001D006820F470405C49091D086008465C
:100AD000006840F440500860012059491031086016
:100AE0005849C1F8A801042000F003FE0020544931
:100AF00010310860042000F0FCFD00205149C1F8CD
:100B0000A80110BD10B54D48001D006820F47040CC
:100B10004A49091D08600846006840F440500860D2
:100B2000002047490C3108604649C1F8AC01042057
:100B300000F0DFFD012042490C3108604149C1F855
:100B4000AC01042000F0D5FD10BD10B500243B48D9
:100B5000001D006820F470403849091D08600846EF
:100B6000006840F4004008600120354910310860F9
:100B700000F0BFFD01203349C1F8A80100F0B9FD24
:100B800007E0601CC4B2FA2C03DDFFF7BBFF0120B5
:100B900010BD2B48703800680028F2D128490C316C
:100BA000086000BFF4E710B5002025490C3108604B
:100BB0002248001D006820F470402049091D08608B
:100BC0000846006840F44050086000201D49C1F804
:100BD000AC01022000F08DFD012019490C310860A4
:100BE000022000F086FD00201649C1F8A80110BDC2
:100BF00010B5002012490C3108601048001D006833
:100C000020F470400D49091D08600846006840F452
:100C10004050086001200B49C1F8AC01022000F0EF
:100C200068FD012006490C310860022000F061FDDA
:100C300000200449C1F8A80110BD0000000C0140CB
:100C40009C8121420080214270B5044631480068F1
:100C500020F470402F4908600846006840F4405076
:100C6000086000202C49086000251EE0E00920B142
:100C700001202949091D086003E000202649091DBB
:100C800008606006040E022000F033FD01202249B6
:100C90000860022000F02DFD00202049C1F8A801C5
:100CA000022000F026FD681CC5B2082DDEDB70BDF9
:100CB00070B5054600241748006820F470401549B7
:100CC00008600846006840F400400860002616E00E
:100CD000002011490860022000F00BFD01200F499F
:100CE000C1F8A8016006040E0B487C38006808B102
:100CF000601CC4B2012000F0FCFC701CC6B2082EBF
:100D0000E6DB15B9FFF774FF01E0FFF74CFF204663
:100D100070BD0000040C0140A881214200802142E6
:100D200070B502460C46FF25FF2309E012F8010BBF
:100D300080EA0501FB48405C80EA0305FA48435C11
:100D40002000A4F10106F4B2F0D143EA052070BD01
:100D5000F648F7490860801C4860801C8860801C49
:100D6000C860801C0861801C48610A308862704736
:100D70001FB50121202001F064F9EE48008800EB46
:100D800080004FF6FF7101EA4000ADF8080041F61F
:100D90001F40ADF804000020ADF80A00ADF80600D1
:100DA00001A9E54801F07EFC0121E34802F09CFA2C
:100DB00001221146E04801F0ECFF4FF4E06000F042
:100DC000A9FD37208DF8000000208DF801008DF876
:100DD000020001208DF80300684600F0A0FD1FBD51
:100DE00000B587B00121042001F01EF9012148045B
:100DF00001F027F90220ADF8180010208DF81B0033
:100E000003208DF81A0006A9CC4800F051FE1021ED
:100E1000CA4800F0FCFE0420ADF8180018208DF838
:100E20001B0006A9C54800F043FE0820ADF81800D5
:100E300004208DF81B0006A9C04800F039FE0121EE
:100E4000480401F018F900214FF4003001F013F9C3
:100E5000BB48006802900020ADF81400ADF80C000B
:100E6000ADF80E000C20ADF81200B648007820B1A5
:100E7000012806D002280ED108E00020ADF81000AD
:100E800009E04FF4C060ADF8100004E04FF480605A
:100E9000ADF8100000BF00BF02A9AB4801F06DF92A
:100EA00026208DF8040002208DF805008DF806003C
:100EB00001208DF8070001A800F031FD40F2255116
:100EC000A14801F001FB012240F225519E4801F0AA
:100ED000ECF901219C4801F0DCF900209B490860F5
:100EE000FFF746FFFFF734FF07B000BD70B50546BA
:100EF0000E46012095490860052000F01EFC0024E4
:100F00000FE000BF4021904801F09EFA0028F9D080
:100F1000052000F0EEFB295D8B4801F027FA601CEC
:100F2000C4B2B442EDDB00BF4021874801F08CFA27
:100F30000028F9D000208549086070BD70B540F2E6
:100F40002551814801F096FA38B307217E4801F017
:100F50007BFA08B1012400E000247B4801F00AFA82
:100F6000C5B27B48008840F2FF71884215DAA4B907
:100F7000784877490988455475480088401C744969
:100F8000088001216C4802F0C3F900216A4802F090
:100F900079F90121684801F0E1FE70BD10B5012129
:100FA000654802F0A4F960B10121634802F0B0F98C
:100FB0000021614801F0D2FE0120644908606649C1
:100FC000087010BD10B56348007900025849634AA3
:100FD000128851F82210088055486049098850F855
:100FE000210000885B494979084351495B4A1288CE
:100FF00051F82210088001205949087006204870D5
:101000005448807888705348C078C8705148007937
:10101000087150484079487106215148FFF780FE19
:1010200050490880084600784D49C8714D480088ED
:10103000000A887108214A48FFF758FF474800888E
:101040001E2807DB45480088462803DA0A2000F0FE
:1010500074FB02E0012000F070FB10BD10B53D48AC
:1010600040793C49097940EA01203F4908803B48E2
:10107000008809880844B0F57A7F78DA3548007826
:101080003749087033484078487037480078400640
:10109000000E8870002419E030480088204424495C
:1010A00051F820000078042101EB44012C4A5054EF
:1010B0002A48008820441E4951F820000088000A70
:1010C000032101EB44015054601CC4B2264800883F
:1010D0008442E1DB24480078032202EB4000C1B2E5
:1010E0001F48FFF71DFE1F49088008460088010AB7
:1010F0001D480088032202EB4000194A1154194888
:10110000017819480088042202EB4000144A115467
:1011100015480078052202EB4000C1B21048FFF7E5
:10112000E5FE33E06800002068010020C00E0020CA
:10113000C00600206E02002000140040000801409C
:10114000680200206C02002000440040840121421B
:1011500070020020C00200207202002076020020EF
:10116000C00400207A02002078020020FFE74648F1
:101170000078464908704448407840F08000487044
:101180000220887003214148FFF7B0FE10BD10B562
:101190003F480078012876D13B48007801286BD180
:1011A00039484078032803D037484078062854D17E
:1011B0003548C0783449897840EA012035490880AB
:1011C00008460088B0F57A7F37DA33480078801E09
:1011D000C1B22D48FFF7A4FD304908802E48008891
:1011E000401E2949095C2C480088801E264A105C54
:1011F00041EA002429480088A0420ED110464078D8
:10120000032802D0062806D102E0FFF727FF03E0FB
:10121000FFF7D8FE00E000BF2EE01B4800781B4916
:1012200008701948407840F08000487004208870A9
:1012300003211648FFF75AFE1EE0134800781349B1
:1012400008701148407840F0800048700220887093
:1012500003210E48FFF74AFE0EE00B4800780B49C9
:1012600008700948407840F080004870012088707C
:1012700003210648FFF73AFE002005490870064999
:1012800008800749086010BDC0020020C00400208B
:101290007202002076020020700200207A020020F4
:1012A000840121427FB505460C460121022000F051
:1012B000C8FEADF80850ADF804400020ADF80A00B3
:1012C000ADF8060001A9404801F0ECF901221146F1
:1012D0003D4801F05EFD1D208DF8000000208DF8D6
:1012E000010003208DF8020001208DF803006846FC
:1012F00000F015FB0121344801F030FD7FBD10B531
:101300000121314801F0F3FF68B101212E4801F0BD
:10131000FFFF2E480078401C2C4908702C480078AC
:10132000401C2B49087010BD30B589B005460C46ED
:101330000121042000F085FE0121082000F074FE48
:101340004FF44070ADF8200018208DF823000320E2
:101350008DF8220008A91F4800F0AAFBADF818502C
:10136000ADF814400020ADF81A00ADF8160005A93C
:10137000194801F097F97020ADF804000120ADF88C
:1013800006000020ADF80C0001A9134801F056FA40
:101390000821114801F028FE7020ADF8040001205A
:1013A000ADF806000020ADF80C0001A90A4801F0D4
:1013B00090FA0821084801F020FE0121064801F0BA
:1013C000CDFC09B030BD0000000400407C020020CC
:1013D0007D020020000C01400008004070B5054669
:1013E0000C4645F2555001F097FF284601F097FF53
:1013F000204601F097FF01F098FF01F09BFF70BDC0
:1014000010B501F092FF10BD10B5894908688047FA
:1014100010BD70B500240025854948688047844880
:101420004169D02088478249C8698047804841691E
:10143000882088477E49C86980477D4988688047F9
:10144000012000F07AF97A49486880477848416974
:10145000D12088477649C86980477548816901204D
:10146000884704027248816901208847204484B279
:101470006F4881690020884705466D49C8698047E3
:101480006B4988688047204670BD70B500240025F0
:10149000002667494868804765484169D0208847E9
:1014A0006349C8698047624841698C208847604920
:1014B000C86980475E4988688047012000F03DF98F
:1014C0005B49486880475A484169D1208847584954
:1014D000C86980475648816901208847054645EA22
:1014E00004245348816901208847054645EA0424BD
:1014F0004F48816901208847054645EA04244C4845
:1015000081690020884706464949C869804748499B
:1015100088688047C4F31104204670BD10B5444963
:101520000868804710BD70B5002400254049486810
:1015300080473F484169D22088473D49C869804774
:101540003B484169882088473949C86980473849FC
:1015500088688047012000F0F0F8354948688047E6
:1015600033484169D32088473149C86980473048AA
:1015700081690120884704022D488169012088473C
:10158000204484B22A4881690020884705462849BA
:10159000C8698047264988688047204670BD70B575
:1015A00000240025002622494868804720484169D8
:1015B000D22088471E49C86980471D4841698C2050
:1015C00088471B49C86980471949886880470120B6
:1015D00000F0B3F816494868804715484169D320A0
:1015E00088471349C86980471148816901208847A5
:1015F000054645EA04240E488169012088470546CE
:1016000045EA04240A48816901208847054645EADD
:101610000424074881690020884706460449C869B0
:101620008047034988688047C4F31104204670BD91
:101630004800002010B521490868804710BD70B5EA
:1016400004461E49486880471C484169C0208847B5
:101650001A49C8698047194841699820884717493D
:10166000C8698047154988688047012000F065F8FF
:10167000200340F6C41190FBF1F085B205F47060D0
:1016800006120E49486880470C484169C0208847C7
:101690000A49C8698047094841693046884707496F
:1016A000C8698047E8B2054A516988470349C86953
:1016B000804702498868804770BD000028000020EC
:1016C00010B56FF0040000F074F92E4800682E4940
:1016D000B0FBF1F02D4908700846007800EB40019E
:1016E000C1EBC0104FF6FF7101EAC0002849088025
:1016F00010BD0146254A12784A434FF0E0235A6153
:1017000000229A611A46126942F001021A6100BF72
:101710004FF0E022106900F001021AB100F48032AB
:10172000002AF5D04FF0E022126922F001024FF0BA
:10173000E0231A6100229A6170470146144A128818
:101740004A434FF0E0235A6100229A611A46126917
:1017500042F001021A6100BF4FF0E022106900F070
:1017600001021AB100F48032002AF5D04FF0E022D5
:10177000126922F001024FF0E0231A6100229A61FF
:10178000704700000400002000127A00A002002030
:10179000A2020020014600BF704700BF494A1288DC
:1017A00002F04002002AF9D0C2B2464B1B1D1A803B
:1017B000704710B586B00446012144F2040000F0E1
:1017C00033FC4FF40070ADF8140003208DF81600C0
:1017D00018208DF8170005A93B4800F069F94FF46F
:1017E0008060ADF8140004208DF8170005A9364874
:1017F00000F05EF925208DF8000003208DF801002F
:101800008DF8020001208DF80300684600F087F88B
:1018100001940020ADF80800ADF80A00ADF80C0006
:10182000ADF810000C20ADF80E0001A9254800F01D
:10183000A4FC012240F22551224800F036FD01218E
:10184000204800F026FD06B010BD10B540F225512D
:101850001C4800F00FFE10B31A4800F08BFDC4B214
:101860001A48008800F40040C8B91848008800F4FD
:10187000804060B10A2C03D000201449088020E089
:101880001248008840F400401049088019E00D2CEF
:1018900006D10E48008840F480400C49088010E0D2
:1018A0000A480088C0F30D0009490C540748008815
:1018B000401C0649088008460088C72801DD002032
:1018C000088010BD0038014000080140A802002037
:1018D000100F00200948804709480047FEE7FEE74F
:1018E000FEE7FEE7FEE7FEE7FEE7FEE7FEE7FEE7D0
:1018F00004480549054A064B704700007303000879
:10190000310100083810002038160020381200205D
:101910003812002031490143314A1160704770B5D7
:10192000002100230F22C47804B32D4C246804F452
:10193000E064C4F5E064210AC1F10403CA404478BC
:1019400004FA03F18478144021430901254C0678F8
:10195000A155047804F01F050124AC4005786D11F1
:10196000AD0005F1E025C5F8004109E0047804F078
:101970001F050124AC401C4D0678761145F8264021
:1019800070BD1A4A0A400243154B1B1F1A6070476C
:1019900039B1134A121D12680243114B1B1D1A6004
:1019A00006E00F4A121D126882430D4B1B1D1A6080
:1019B0007047042808D14FF0E021096941F0040183
:1019C0004FF0E022116107E04FF0E021096921F0BA
:1019D00004014FF0E0221161704700000000FA0599
:1019E0000CED00E000E400E080E100E080FFFF1F7C
:1019F00010B50446CC48844208D10121042000F0EF
:101A00002DFB0021042000F029FB46E0C74884425A
:101A100008D10121082000F021FB0021082000F05E
:101A20001DFB3AE0C248844208D10121102000F099
:101A300015FB0021102000F011FB2EE0BD48844270
:101A400008D10121202000F009FB0021202000F016
:101A500005FB22E0B848844208D10121402000F073
:101A6000FDFA0021402000F0F9FA16E0B348844264
:101A700008D10121802000F0F1FA0021802000F03F
:101A8000EDFA0AE0AE48844207D10121801500F04A
:101A9000E5FA0021A01500F0E1FA10BD10B5012112
:101AA000084600F0DBFA0021012000F0D7FA10BD53
:101AB0002DE9F041024600250026002000230024E5
:101AC000002791F803C00CF00F0591F803C00CF04B
:101AD000100CBCF1000F03D091F802C04CEA0505D0
:101AE00091F800C0BCF1000F31D0146800202BE049
:101AF0004FF0010C0CFA00F3B1F800C00CEA030639
:101B00009E4220D183004FF00F0C0CFA03F7BC4328
:101B100005FA03FC4CEA040491F803C0BCF1280F59
:101B200006D14FF0010C0CFA00FCC2F814C00AE018
:101B300091F803C0BCF1480F05D14FF0010C0CFA2D
:101B400000FCC2F810C0401C0828D1D31460B1F8C2
:101B500000C0BCF1FF0F34DD546800202EE000F11E
:101B6000080C4FF0010808FA0CF3B1F800C00CEAB9
:101B700003069E4221D183004FF00F0C0CFA03F7AD
:101B8000BC4305FA03FC4CEA040491F803C0BCF121
:101B9000280F05D100F1080C08FA0CF8C2F81480DF
:101BA00091F803C0BCF1480F07D100F1080C4FF0C9
:101BB000010808FA0CF8C2F81080401C0828CED39F
:101BC0005460BDE8F0814FF6FF7101800221817001
:101BD0000421C17070470246002093680B400BB18E
:101BE000012000E0002070470146886880B27047FD
:101BF00002460020D3680B400BB1012000E000201A
:101C000070470146C86880B2704701617047416102
:101C100070470AB1016100E041617047C1607047DF
:101C20004FF480320A4382618161826182698269F4
:101C3000704702460020434B18684FF680731840E7
:101C400040EA021008433F4B186070473E49C861A4
:101C50007047F0B50A46002300240021002500F05B
:101C60000046B6F1004F02D1364EF16901E0354E23
:101C70007168C0F3034583B200F44016B6F5401F07
:101C800008D121F070612F4E766826F070662D4FD6
:101C90007E6012E000F48016B6F5801F06D10326A0
:101CA00006FA05F4A14341F0706106E0460D3601E5
:101CB00003FA06F6B14341F0706122B1460D3601D8
:101CC00003FA06F6314300F00046B6F1004F02D1A8
:101CD0001C4EF16101E01B4E7160F0BD30B5002279
:101CE0008B071C0F0F2303FA04F2164B08338C10DA
:101CF00053F824309343134C08348D1044F82530A6
:101D000023468C1053F824308C07240F00FA04F477
:101D100023430C4C08348D1044F8253030BD0A495B
:101D2000DC3108607047000000080140000C0140F1
:101D3000001001400014014000180140001C014047
:101D4000002001400000014000002042DF48006800
:101D500040F00100DD49086008464068DC49084061
:101D6000DA49486008460068DA490840D7490860FF
:101D70000846006820F4802008600846406820F487
:101D8000FE0048604FF41F0088607047CF49096823
:101D900021F48031CD4A11601146096821F4802177
:101DA0001160B0F5803F03D0B0F5802F0ED106E072
:101DB000C649096841F48031C44A116007E0C3494B
:101DC000096841F4A021C14A116000E000BF00BFD2
:101DD000704710B501460022002300204A11012A55
:101DE00002D1BA4C236806E0022A02D1B74C236A1A
:101DF00001E0B64C636A01F01F02012494401C40CC
:101E00000CB1012000E0002010BD38B5002000908A
:101E10000024002500BF3120FFF7DBFF05460098B6
:101E2000401C00900098B0F5A06F01D0002DF2D0BA
:101E30003120FFF7CEFF08B1012400E00024204646
:101E400038BD01460020A14A106820F0F80040EAA1
:101E5000C10010607047A04908607047024600202A
:101E60009A4B586820F47C1042EA01031843974BC0
:101E70005860704798490866704701460020934AA9
:101E8000506820F003000843506070478F48406856
:101E900000F00C007047014600208C4A506820F08A
:101EA000F00008435060704701460020874A5068A0
:101EB00020F4E06008435060704701460020834AE8
:101EC000506820F4605040EAC1005060704729B16A
:101ED0007E4A527A02437D4B5A7204E07B4A527A20
:101EE00082437A4B5A7270477B49D83108607047F9
:101EF00001460020754A506820F440400843506075
:101F000070470021714A20321170704A82F8201007
:101F1000012802D004280AD104E001216B4A2032B2
:101F2000117005E00521694A2032117000E000BF00
:101F300000BF70476949086070476449096A0143F6
:101F4000624A11627047654944390860704730B58C
:101F500000210022002400235C4D6D6805F00C0177
:101F600021B1042905D0082923D105E05C4D056085
:101F700022E05C4D05601FE0544D6D6805F4701261
:101F8000524D6D6805F48034022505EB92421CB970
:101F9000554D554305600BE04C4D6D6805F400351B
:101FA0001DB14F4D5543056002E04E4D5543056050
:101FB00002E04B4D056000BF00BF444D6D6805F069
:101FC000F0010909494D6B5C0568DD4045603F4DF6
:101FD0006D6805F4E061090A444D6B5C4568DD40BD
:101FE00085603A4D6D6805F46051C90A3F4D6B5CE0
:101FF0004568DD40C560354D6D6805F44041890B8D
:102000003B4D6B5CC568B5FBF3F5056130BD29B18F
:102010002E4A526902432D4B5A6104E02B4A526901
:1020200082432A4B5A61704729B1284A9269024378
:10203000264B9A6104E0254A92698243234B9A61B8
:10204000704729B1214AD2690243204BDA6104E08A
:102050001E4AD26982431D4BDA61704729B11B4A7F
:10206000D2680243194BDA6004E0184AD26882430E
:10207000164BDA60704729B1144A12690243134BB8
:102080001A6104E0114A12698243104B1A617047C9
:1020900012494039086070470F49C86470470B49BE
:1020A000C87170470948406A40F08070074948622B
:1020B000704701460020054A92680A400AB1012093
:1020C00000E000207047014988727047001002400C
:1020D0000000FFF8FFFFF6FE00004242800442428B
:1020E00000127A000024F40000093D00AA0200203A
:1020F000BA02002010B50446FB48844209D10121F0
:102100008803FFF7ABFF00214FF48040FFF7A6FFE5
:1021100032E0F648844209D101214804FFF7ABFFC1
:1021200000214FF40030FFF7A6FF25E0F04884427D
:1021300009D101218804FFF79EFF00214FF4802080
:10214000FFF799FF18E0EB48844209D10121C80448
:10215000FFF791FF00214FF40020FFF78CFF0BE009
:10216000E548844208D101210805FFF784FF0021DA
:102170004FF48010FFF77FFF10BD2DE9F04786B0C8
:1021800005460E460024A24600BFA1460027B0899E
:1021900000B100BF2F462C8A4CF6FF700440F08837
:1021A00004432C82AC894EF6F3100440B088318988
:1021B0000843718908430443AC81AC8A4FF6FF4061
:1021C0000440B0890443AC8201A8FFF7C0FEC648B2
:1021D000874202D1DDF810A001E0DDF80CA0A8894B
:1021E00000F4004040B10AEBCA0000EB0A1031686D
:1021F0004900B0FBF1F807E00AEBCA0000EB0A1057
:1022000031688900B0FBF1F86420B8FBF0F00401FC
:102210002009642101FB1089A88900F4004040B125
:10222000322000EBC900B0FBF1F000F007000443DE
:1022300008E0322000EB09106421B0FBF1F000F05F
:102240000F0004432C8106B0BDE8F0874FF416510F
:10225000016000218180C18001810C214181002128
:102260008181704710B502460020108A4FF2FF03AB
:1022700018400B884C8823438C882343CC88234305
:102280001843108210BD0021018041808180C180EF
:10229000704721B1828942F40052828104E0828930
:1022A0004DF6FF731A4082817047F0B50346002453
:1022B00000260025002040F66A17B94200D100BF71
:1022C0001846C1F3421401F01F06012707FA06F56C
:1022D000012C01D10C3004E0022C01D1103000E0BF
:1022E00014301AB107682F43076002E00768AF4354
:1022F0000760F0BD1AB1838A0B43838202E0838AB0
:102300008B4383827047028A4FF6F0731A40028231
:10231000028A0A430282704782894FF2FF731A4091
:10232000828182890A438281704721B1828942F089
:102330000202828104E082894FF6FD731A40828195
:102340007047028A4FF6DF731A400282028A0A43FC
:102350000282704721B1028A42F48042028204E084
:10236000028A4BF6FF731A4002827047C1F30802DB
:102370008280704701468888C0F3080070478189D1
:1023800041F0010181817047028BD2B20283028B3E
:1023900042EA012202837047028B02F47F420283E9
:1023A000028B0A430283704721B1828A42F02002E5
:1023B000828204E0828A4FF6DF731A40828270477D
:1023C00021B1828A42F01002828204E0828A4FF6B2
:1023D000EF731A408282704721B1828A42F008026C
:1023E000828204E0828A4FF6F7731A408282704735
:1023F00021B1828942F40042828103E08289C2F3E2
:102400000E028281704721B1828A42F40062828288
:1024100004E0828A4FF2FF731A4082827047828AF8
:102420004FF6FB731A408282828A0A438282704787
:1024300021B1828A42F00202828204E0828A4FF64F
:10244000FD731A408282704702460020B1F5007F7A
:1024500000D100BF13880B400BB1012000E0002029
:10246000704701F40072B2F5007F00D100BFCA438B
:102470000280704770B5024600240023002500202A
:1024800040F66A16B14200D100BFC1F3421501F017
:102490001F03012606FA03F3012D02D1968933406A
:1024A00006E0022D02D1168A334001E0968A3340BD
:1024B0000C12012606FA04F41688344013B10CB14C
:1024C000012000E0002070BD10B50022002340F67E
:1024D0006A14A14200D100BF0A1201249440A3B2A1
:1024E000DC43048010BD000000380140004400407F
:1024F00000480040004C00400050004010B5044629
:10250000FE48844208D10121C014FFF7A7FD002135
:10251000E014FFF7A3FDC4E0B4F1804F08D101211E
:102520000846FFF7A8FD00210120FFF7A4FDB8E051
:10253000F348844208D101210220FFF79CFD0021CD
:102540000220FFF798FDACE0EE48844208D101215B
:102550000420FFF790FD00210420FFF78CFDA0E090
:10256000E948844208D101210820FFF784FD0021B9
:102570000820FFF780FD94E0E448844208D101215F
:102580001020FFF778FD00211020FFF774FD88E090
:10259000DF48844208D101212020FFF76CFD002193
:1025A0002020FFF768FD7CE0DA48844208D1012151
:1025B0004014FFF753FD00216014FFF74FFD70E05A
:1025C000D548844209D10121C804FFF747FD002105
:1025D0004FF40020FFF742FD63E0D048844209D168
:1025E00001210805FFF73AFD00214FF48010FFF7A5
:1025F00035FD56E0CA48844209D101214805FFF75C
:102600002DFD00214FF40010FFF728FD49E0C548DB
:10261000844208D101214020FFF72DFD00214020F8
:10262000FFF729FD3DE0C048844208D10121802008
:10263000FFF721FD00218020FFF71DFD31E0BB48A1
:10264000844208D101218015FFF715FD0021A01556
:10265000FFF711FD25E0B648844209D101210804A5
:10266000FFF7FCFC00214FF48030FFF7F7FC18E087
:10267000B048844209D101214804FFF7EFFC002152
:102680004FF40030FFF7EAFC0BE0AB48844208D17E
:1026900001218804FFF7E2FC00214FF48020FFF7BE
:1026A000DDFC10BD00220288944B98420ED0994B5D
:1026B00098420BD0B0F1804F08D0914B984205D092
:1026C000904B984202D0904B984204D14FF68F73B2
:1026D0001A404B881A438D4B984207D08C4B984236
:1026E00004D04FF6FF431A40CB881A4302808B88F0
:1026F00083850B880385814B98420BD0854B98428C
:1027000008D08B4B984205D08A4B984202D08A4B16
:10271000984201D10B7A038601238382704770B5FA
:10272000002400220023058C4FF6FE7635400584F8
:10273000028C8388048B4FF68F752C40B51E2C407D
:102740000D882C43751E2A400D892A434D882A4343
:102750006A4DA8420BD06F4DA84208D0744DA842D4
:1027600005D0744DA84202D0734DA84213D14FF644
:10277000F7752A404D892A434FF6FB752A408D880C
:102780002A434FF6FF652B404FF6FF552B408D89AE
:102790002B43CD892B4383800483CD888586028497
:1027A00070BD70B5002400220023058C4FF6EF7633
:1027B00035400584028C8388048B48F6FF752C40D5
:1027C0004FF6FF452C400D884FF6FF7606EA0525AB
:1027D0002C434FF6DF752A400D8906EA05152A437A
:1027E0004D8806EA05152A43444DA84202D0494DBA
:1027F000A8421DD14FF67F752A404D894FF6FF76CE
:1028000006EA05152A434FF6BF752A408D8806EA69
:1028100005152A434FF6FF352B404FF2FF752B402D
:102820008D8906EA85052B43CD8906EA85052B436C
:1028300083800483CD880587028470BD70B5002431
:1028400000220023058C4FF6FF6635400584028C7C
:102850008388848B4FF68F752C404FF6FC752C4087
:102860000D882C434FF6FF552A400D894FF6FF7611
:1028700006EA05252A434D8806EA05252A431F4D09
:10288000A84202D0234DA8421DD14FF2FF752A4025
:102890004D894FF6FF7606EA05252A434FF6FF35A8
:1028A0002A408D8806EA05252A434EF6FF752B40FF
:1028B0004DF6FF752B408D8906EA05152B43CD8912
:1028C00006EA05152B4383808483CD88858702849F
:1028D00070BD70B5002200230024058C4EF6FF76F3
:1028E00035400584038C8488828B48F6FF752A4026
:1028F0004FF6FF452A400D8820E00000002C0140E3
:102900000004004000080040000C0040001000409F
:102910000014004000340140004C014000500140D0
:102920000054014000180040001C004000200040FE
:102930000040014000440140004801404FF6FF764E
:1029400006EA05252A434DF6FF752B400D8906EA58
:1029500005352B434D8806EA05352B43FA4DA84231
:1029600002D0FA4DA84208D14BF6FF752C408D8954
:102970004FF6FF7606EA85152C4384808283CD8846
:10298000A0F84050038470BD828B4FF2FF331A4091
:102990008283828B4FF6FF7303EA01231A438283FB
:1029A0007047F0B50C461546002200210026078C22
:1029B0004EF6FF7C07EA0C070784828B018C4FF6EA
:1029C000FF7707EA043640F6FF473A404FF6FF77B5
:1029D00007EA05273A434FF6FF7707EA03373A43FA
:1029E000D94FB8420ED0D94FB8420BD0B0F1804F7A
:1029F00008D0D74FB84205D0D64FB84202D0D64FF4
:102A0000B84206D14DF6FF77394046F48057394336
:102A100005E047F6FF57394044F480573943828335
:102A20000184F0BD828B4FF6F3731A408283828B50
:102A30000A4382837047F0B50C46154600220021F8
:102A40000026078C4FF6FF6C07EA0C070784828B81
:102A5000018C4FF6FF7707EA04264FF60C773A40D1
:102A60004FF6FF7707EA03172F433A43B64FB842B2
:102A70000ED0B64FB8420BD0B0F1804F08D0B44F53
:102A8000B84205D0B34FB84202D0B34FB84206D1D6
:102A90004FF6FF57394046F48077394305E04FF24F
:102AA000FF57394044F48077394382830184F0BD75
:102AB000028B4FF2FF331A400283028B4FF6FF73F3
:102AC00003EA01231A4302837047F0B50C4615460A
:102AD000002200210026078C4FF6EF7C07EA0C0746
:102AE0000784028B018C4FF6FF7707EA041640F645
:102AF000FF473A404FF6FF7707EA03373A434FF66E
:102B0000FF7707EA05273A438F4FB8420ED08F4F21
:102B1000B8420BD0B0F1804F08D08D4FB84205D0ED
:102B20008C4FB84202D08C4FB84206D14FF6DF77B7
:102B3000394046F01007394305E04FF65F773940DA
:102B400044F01007394302830184F0BD028B4FF635
:102B5000F3731A400283028B0A4302837047F0B575
:102B60000C46154600220021068C4FF6FE773E40AB
:102B70000684028B018C4FF60C7632407E1C06EAEE
:102B800003162E433243704EB0420ED06F4EB04209
:102B90000BD0B0F1804F08D06D4EB04205D06D4ED5
:102BA000B04202D06C4EB04206D14FF6FD763140B5
:102BB00044F00106314305E04FF6F576314044F02C
:102BC0000106314302830184F0BD70B505460C4611
:102BD0005D4885420ED05D4885420BD0B5F1804FEF
:102BE00008D05B48854205D05A48854202D05A48F1
:102BF000854200D100E000BF208850B92389A28817
:102C000061882846FFF7ABFFE1882846FFF79EFF63
:102C100025E0208804280AD12389A28861882846D3
:102C2000FFF753FFE1882846FFF742FF17E02088AF
:102C300008280AD12389A28861882846FFF7FBFE6D
:102C4000E1882846FFF7EEFE09E02389A288618823
:102C50002846FFF7A6FEE1882846FFF795FE70BDDF
:102C60002DE9F04105460C4600260127608808B989
:102C7000022600E00026A088012801D1022700E0FA
:102C800001272088A0B92389A28861882846FFF7F8
:102C900066FFE1882846FFF759FF23893A46314607
:102CA0002846FFF712FFE1882846FFF701FF13E0EF
:102CB0002389A28861882846FFF707FFE188284614
:102CC000FFF7F6FE23893A4631462846FFF747FFCD
:102CD000E1882846FFF73AFFBDE8F0810A884B8873
:102CE0001A438B881A43CB881A430B891A434B89A2
:102CF0001A438B891A43A0F8442070474FF6FF719E
:102D0000818000210180C1804180017270470021D3
:102D1000018041808180C180018141818181C181A7
:102D20007047002101804180012181800021C18004
:102D3000018170470021018041808180C180018133
:102D40004181818170470000002C01400034014026
:102D50000004004000080040000C004021B102883F
:102D600042F00102028004E002884FF6FE731A402E
:102D70000280704731B1B0F8442042F40042A0F81C
:102D8000442005E0B0F84420C2F30E02A0F844202D
:102D900070471AB183890B43838102E083898B4397
:102DA000838170478182704741EA0203A0F848306E
:102DB00070471AB183890B43838102E083898B4377
:102DC0008381704701894FF6F87211400181704785
:102DD0000A46002101894FF68F7319401143018182
:102DE000704730B504460D4629462046FFF7F0FFF0
:102DF000208940F00700208130BD2DE9F0410446D4
:102E00000D4616461F46602D06D13B46012231462F
:102E10002046FFF75AFE05E03B4601223146204698
:102E2000FFF79DFE29462046FFF7D2FF208940F09C
:102E300007002081BDE8F08130B50C4600210189F2
:102E4000C9B24FF6FF7505EA03251543254329430B
:102E5000018130BD2DE9F04105460E4617469846E2
:102E6000002443463A4631462846FFF7E5FF2C89C1
:102E70004FF6F870044044F007044FF68F7004409A
:102E800044F070042C81BDE8F081F0B504460D4695
:102E900016461F463B46324629462046FFF7CCFFE2
:102EA000208940F480402081F0BD018582827047F6
:102EB0000A46002101884FF68F73194011430180A3
:102EC0007047F0B50C4615461E460021002200232F
:102ED0000189028B038C4FF6F877394021434FF676
:102EE000FC473A4040F201173A434FF6DD773B404A
:102EF0004FF6FF7707EA06172F433B430181028312
:102F00000384F0BD0A460021018B4FF68F731940F0
:102F10001143018370470A460021018B48F6FF7375
:102F200019404FF6FF7303EA0223194301837047E8
:102F30000A460021818B4FF68F731940114381831C
:102F400070470A460021818B48F6FF7319404FF6FF
:102F5000FF7303EA022319438183704721B102887A
:102F600042F08002028004E002884FF67F731A402C
:102F70000280704721B1828842F00402828004E01E
:102F800082884FF6FB731A408280704721B1828895
:102F900042F00802828004E082884FF6F7731A40FC
:102FA0008280704721B1828842F00102828004E071
:102FB00082884FF6FE731A40828070470A460021CD
:102FC000018B4FF6F77319401143018370470A468E
:102FD0000021018B4FF2FF7319404FF6FF7303EA94
:102FE00002231943018370470A460021818B4FF663
:102FF000F77319401143818370470A460021818B82
:103000004FF2FF7319404FF6FF7303EA022319438F
:10301000818370470A460021018B4FF6FB731940EC
:103020001143018370470A460021018B4FF6FF339D
:1030300019404FF6FF7303EA0223194301837047D7
:103040000A460021818B4FF6FB731940114381839F
:1030500070470A460021818B4FF6FF3319404FF627
:10306000FF7303EA02231943818370470A46002154
:10307000018B4FF67F7319401143018370470A4655
:103080000021018BC1F30E014FF6FF7303EA022307
:103090001943018370470A460021818B4FF67F73E5
:1030A00019401143818370470A460021818BC1F387
:1030B0000E014FF6FF7303EA022319438183704721
:1030C0000A460021018C4FF6FD731940114301841B
:1030D00070470A460021018C4FF6F77319401143DF
:1030E000018470470A460021018C4FF6DF731940B6
:1030F0004FF6FF7303EA02131943018470470A462F
:103100000021018C4FF67F7319404FF6FF7303EADD
:1031100002131943018470470A460021018C4FF6BF
:10312000FF5319404FF6FF7303EA0223194301844A
:1031300070470A460021018C4FF2FF7319404FF689
:10314000FF7303EA02231943018470470A460021F2
:10315000018C4DF6FF7319404FF6FF7303EA0233FB
:1031600019430184704730B5002301248C40A3B279
:10317000048C9C430484048C02FA01F5ADB22C4308
:10318000048430BD30B5002304248C40A3B2048CE9
:103190009C430484048C02FA01F5ADB22C430484F0
:1031A00030BD70B5034600200024184618300125B4
:1031B0008D40ACB21D8CA5431D8409B1082909D1ED
:1031C00000EB6100056825F0700505600568154392
:1031D00005600EE00D1FC5F34E052844056825F473
:1031E000E045056005684FF6FF7606EA022635439E
:1031F000056070BD21B1028842F00202028004E045
:1032000002884FF6FD731A400280704721B1028890
:1032100042F00402028004E002884FF6FB731A4079
:103220000280704721B1828842F08002828004E0EF
:1032300082884FF67F731A408280704702884FF66B
:10324000F7731A40028002880A430280704782881E
:103250004FF68F731A40828082880A4382807047BB
:1032600002894FF6F8731A40028102890A430281EB
:10327000704702894FF67F731A40028102890A4320
:1032800002817047818470478185704781867047CD
:103290000187704781877047A0F840107047028807
:1032A0004FF6FF431A40028002880A4302807047AB
:1032B0000146888E70470146088F70470146888F07
:1032C00070470146B1F8400070470146888C70474E
:1032D0000146088D704702460020138A0B400BB14F
:1032E000012000E000207047CA430282704730B5D9
:1032F0000246002000230024158A05EA010395896F
:1033000005EA010413B10CB1012000E0002030BD3A
:10331000CA430282704700000E49086070470D4999
:10332000486070470B49886070474AF6AA200949EF
:10333000086070474CF6CC4006490860704701466B
:103340000020044AD2680A400AB1012000E00020AF
:10335000704700000030004070477047704770476A
:103360007047754600F028F8AE460500694653469A
:1033700020F00700854618B020B5FEF7B9FABDE881
:1033800020404FF000064FF000074FF000084FF0CC
:10339000000B21F00701AC46ACE8C009ACE8C0095D
:1033A000ACE8C009ACE8C0098D4670470446AFF3ED
:1033B00000802046FCF723FF00487047D80F00200C
:1033C00021F00042A2F16052B2F5801F01F00043EB
:1033D00028BFD2F17F6C0BD95FEA001C43EAC2021E
:1033E00042EB507018BF704728BF20F001007047B3
:1033F000B2F5801FBCBF184670474FEA410C1CF560
:10340000001F02D2084600F020BD70B500F0B4FAEB
:1034100000000089FFF7F6BF4FF00040A0F58000E4
:103420007047000010B591EA030F48BF83F00043D6
:1034300000F1FE82841A71EB030C05D2121943EBE2
:103440000C03001B61EB0C01DFF824E14FEA11547F
:10345000A4EB135C1EEA430F18BF9EEA445F73D0CF
:1034600023EA0E03DCF1200E21EA045143F4801319
:1034700032D322FA0CFE10EB0E0023FA0CFE41EBC5
:103480000E01CCF1200E03FA0EFE10EB0E0051F1EE
:103490000001B1F5801FCCF1200E32D201EB0451B6
:1034A00012FA0EF2BDE8104058BF7047401C38BFFA
:1034B0005FEA420218BF7047002814BF20F00100E5
:1034C00041F100014FEA410313F5001F38BF704777
:1034D000A1F1C04100F09EBA012A43EB0302ACF116
:1034E000200CDCF11F0E32BF4FF0000E23FA0CF35C
:1034F00010EB030041EB0451B4EB115FD0D0A1EB12
:10350000045101F5801149085FEA300001EB0451D4
:103510000ED350F1000038BF12FA0EFE08D1BDE8FC
:103520001040C9E7401C38BF5FEA4202CAD1C3E776
:10353000BDE810404FEA410313F5001F38BF704744
:10354000A1F1C04100F066BA9EEA445F08D011EADA
:103550005E0FBDE8104004BF01F00041002070473D
:10356000BDE8104070B500F007FA00BF64FBBE3E36
:103570000000E0FF2DE9C04130B4DFF8A0C23CEA12
:10358000111418BF3CEA131400F0EC8081EA030523
:103590001CEA111444EAD57418BF1CEA131500F094
:1035A000C780A4EB05044FF0004545EAC12145EA78
:1035B000C32341EA505143EA525304F17F749942C4
:1035C00004F500344FEAC0204FEAC22208BF9042FF
:1035D00000F09C804FEA13650FF24016765D4FEACB
:1035E000134506FB05F7C7F1807706FB07F74FEA9F
:1035F000D737A7FB03687642C8F58038A7FB06CE0D
:1036000038BFA8F1010807FB08E64FF0000EA6FB43
:10361000028CE6FB03CEDCF1000CCEF1004E38BF8D
:10362000AEF1010EA6FB0C584FF000074FF000055D
:10363000E6FB0E87A1FB08C6A0FB07CE16EB0E0625
:1036400045F10005E1FB076515F1E04E7EBFA4F5ED
:1036500080345FEA46066D4116F1800745F10005AA
:103660004FEA17274FEA066647EA0567A6F1DE46E6
:10367000B6F1805F4FEA15251FD9384624F0010CBA
:1036800005EBC471BCF1FE6F01EB0C1102D8F0BC6C
:10369000BDE8008124425CBF01F5801E9EEAC47F24
:1036A00002D4F0BCBDE80081244238D4F0BCA1F1C2
:1036B000C041BDE8004100F0ADB94FEAD22242EA74
:1036C00043524FEAD323A7FB02864FEAD02040EAB9
:1036D000415007FB03661EEA0E0F4FEAD12105FB9E
:1036E000026658BFA6EB0056B6EB00564FEA520EE4
:1036F0004EEAC37E18EB0E0E56EB530EBDD518EBFB
:1037000002085E417F1C55F10005B6E74FF48015B5
:103710004FF000074FF000064FF00008ADE7F0BC97
:103720004FF0000001F1C04101F00041BDE800810F
:1037300011EA0C1F0CEA131500D00CE013EA0C1F61
:1037400000F025804FF00000F0BC81EA030101F099
:103750000041BDE80081F0BCBDE8004181EA030101
:1037600000F058B9F0BCBDE8004170B500F004F9B4
:10377000097EFC3E00F007B881EA03014FF000002B
:1037800001F00041704781EA030100F043B9F0BC49
:10379000BDE800414FF0000021497047FFFDFBF9F3
:1037A000F7F5F4F2F0EEEDEBE9E8E6E4E3E1E0DE74
:1037B000DDDBDAD8D7D5D4D3D1D0CFCDCCCBCAC8E6
:1037C000C7C6C5C4C2C1C0BFBEBDBCBBBAB9B8B70D
:1037D000B6B5B4B3B2B1B0AFAEADACABAAA9A8A800
:1037E000A7A6A5A4A3A3A2A1A09F9F9E9D9C9C9BCE
:1037F0009A99999897979695959493939291919079
:103800008F8F8E8E8D8C8C8B8B8A89898888878709
:103810008685858484838382828181800000FF077E
:103820000000F87FDFF848C170B51CEA111E1EBF0A
:103830001CEA13159EEA0C0F95EA0C0F00F06F803E
:1038400081EA030423EA4C134EEAD47E21EA4C11A8
:1038500041F4801143F48013AE44A1FB024CA0FB61
:103860000365AEF17F7E361955EB0C05A1FB034CC9
:103870004CF10003A0FB021C16EB0C06654153F152
:103880000003094218BF46F0010613F4007F0BD174
:103890004FEA03314FEA0530340341EA155140EA5B
:1038A00016506FF003020AE04FEAC3214FEAC52029
:1038B000F40241EA555140EA56506FF0020202EB21
:1038C0002E4201EB025585EACE710AD05FEA440C24
:1038D00018BF24F0004450F1000041F1000120EA3B
:1038E000D47040F2FE7C624500D270BDA84214BF85
:1038F0004FF080444FF04044002E08BF0024BEF13A
:10390000806FA8BFA1F1C041BDE8704080F2828005
:103910004FF0000001F1C04101F0004170479EEA04
:103920000C0F0CEA131518BF95EA0C0F06D04FF0D8
:10393000000081EA030E0EF0004170BD00F01CF89B
:103940008900013E00F007B800F009B84FEA430CC7
:103950005FEA5C5C08D081EA030100F05BB84FEAE3
:10396000410C5FEA5C5CF6D14FF000000149704702
:103970000000FF070000F87F0EF1020E2EF0030E8C
:103980005EF8046B364205D4012A43EB030515F5B6
:10399000001F12D8012841EB010C1CF5001F0CD8A8
:1039A0000ED14FEAD17C15F5001F0CEB4C0C0CF13D
:1039B000020C08BF4CEBD37C04E04FF0080C01E094
:1039C0004FEAD37C0CEB4C0526FA05F606F0070609
:1039D000B6F1040C06D20EEB860CBDE870404CF03C
:1039E000010C6047DFE80CF0090B02024FF00041C8
:1039F0004FF00000A1F5002170BD194610460128C6
:103A000051EB010418BFD4F5001484BF002001F06D
:103A1000004170BD0808A0F500114FEA3101704760
:103A200010B591EA030F48BF83F000433FF502ADA4
:103A3000841A71EB030C07D212198CF0004C43EB83
:103A40000C03001B61EB0C01DFF8A4E14FEA1154F9
:103A5000A4EB135C1EEA430F18BF9EEA445F00F01C
:103A6000B08023EA6E03524221EA0451C3EB6E0395
:103A700038BF5B1EDCF1200E25D322FA0CFE10EBC2
:103A80000E0043FA0CFE41EB0E01CCF1200E03FABE
:103A90000EFE10EB0E0051F10001CCF1200E29D4E6
:103AA00012FA0EF201EB0451BDE8104058BF704706
:103AB000401C1CBFB2F1004F704700280CBF491CCE
:103AC00020F00100704712EB020E43EB030218BF17
:103AD0004FF0010E4EEA4202ACF1200CDCF11E0E5A
:103AE00054D943FA0CFE10EB0E0051F1FF31CCF12A
:103AF0001E0ED5D50EF1010E12FA0EFE404141EB1D
:103B0000010101EB445C5FEA5C5C10D910EBDE70F4
:103B100001EB045138BFBEF1004FBDE8104018BFA3
:103B2000704700280CBF491C20F00100704730D2BC
:103B30004FEAD42C11F5001124F400641BD0B1FA23
:103B400081F20B3AA41AA41ED2F12003914030FA5C
:103B500003F31943904001EBCC71002C01EB0451AD
:103B6000BDE81040A8BF704701F1C0414FF0000010
:103B700001F000417047B0FA80F310FA03F100D170
:103B800010BDE41A173C4805C90AE4E701EB0451EB
:103B900010BD491001EB0451BDE810404FEA300060
:103BA00002E04FF0000170474A0008BF0042F8D021
:103BB000B2F5001F28BF704701F000414FF0000030
:103BC00070479EEA445F07D011EA5E0FBDE81040DF
:103BD00004BF002100207047BDE8104070B5FFF71A
:103BE000CBFE00BF40DFF63E83F000411046704739
:103BF0000000E0FF43004FEAD30C4FEA3C0C434087
:103C00001FBF40070CF1605113F0FE4F70471CF0CE
:103C1000006F03D100200CF0004170470CF000430E
:103C200043EA507010B540EACC0000F0C8F800BF7D
:103C3000000000924FEA0001FFF7ECBE4FF0004198
:103C40004FF00000A1F5002170470000C10DD1F137
:103C50009E0206DB4FEA002343F0004323FA02F002
:103C60007047004207D54FEA4001B1F1FE4F02D242
:103C70004FF00000704710B500F0A1F84992248081
:103C8000002070476FEA20007047000010F00041EC
:103C900048BF4042B0FA80F310FA03F2C3F19D032B
:103CA0000BD051EAC35101EB1220530638BF7047C5
:103CB00000F1010008BF20F0010070474FF47F0CB5
:103CC0001CEAD0121EBF1CEAD11392EA0C0F93EA31
:103CD0000C0F00F0478090EA010F48BF42F4807259
:103CE0004FF0004C4CEA00204CEA012102EB0302A9
:103CF000A0FB0113A2F50002002918BF43F0010345
:103D00005B0028BF4FEA330342EB22425FEA132CE9
:103D10004CEBC2502EBFBCEB436FB2F57C0F70472B
:103D20004FEA036CBCF1004F08BF20F00100B2F570
:103D30007C0F38BF70470BD582F0FF0212F5803F31
:103D4000C8BF704700F1C040D8BF00F000407047C6
:103D500000F5000C5FEA4C0C48BF7047B0F1C04062
:103D600000F073B890EA010F0CEAD11348BF42F497
:103D70008072624538BF634504D280EA010000F0DA
:103D80000040704710B500F01AF800BF8900013EEE
:103D900000F007B800F009B85FEA410C5FEA1C6C5C
:103DA00008D080EA010000F050B85FEA400C5FEAFA
:103DB0001C6CF6D14FF00040A0F5800070470EF16A
:103DC000020E2EF0030E5EF8044B244204D44FEA98
:103DD0004102B2F17F4F11D84FEA4003B3F17F4F58
:103DE0000CD80ED14FEAD07CB2F17F4F0CEB4C0CCB
:103DF0000CF1020C08BF4CEBD17C04E04FF0080C36
:103E000001E04FEAD17C0CEB4C0324FA03F404F0FC
:103E10000704B4F1040C06D20EEB840CBDE810408C
:103E20004CF0010C6047DFE80CF0070802024FF08D
:103E30000040A0F5800010BD0846420018BFD2F136
:103E4000807288BF00F0004010BDFF2141EAD050D1
:103E5000C0057047743E000800000020C00200004A
:103E60006C0100081C400008C0020020781300000C
:103E7000C80100085184A24A04100B010203040681
:103E800007080945071B0877041A7F041A870413DB
:103E90002D081B085B041A9B041333091B087904C3
:103EA0001ABF0413270A1B08DD141A8B081ABD0455
:103EB00013050B1B08A7041AF10413490C1B08B1C6
:103EC000041A4B0C112808C1814001C080410469CB
:103ED0000C2908E918A91C091A3009163809366096
:103EE000092E70092F6000FF00C0C101C30302C288
:103EF000C60607C705C5C404CC0C0DCD0FCFCE0E2A
:103F00000ACACB0BC90908C8D81819D91BDBDA1A99
:103F10001EDEDF1FDD1D1CDC14D4D515D71716D609
:103F2000D21213D311D1D010F03031F133F3F23279
:103F300036F6F737F53534F43CFCFD3DFF3F3EFEE9
:103F4000FA3A3BFB39F9F83828E8E929EB2B2AEA59
:103F5000EE2E2FEF2DEDEC2CE42425E527E7E626C9
:103F600022E2E323E12120E0A06061A163A3A26239
:103F700066A6A767A56564A46CACAD6DAF6F6EAEA9
:103F8000AA6A6BAB69A9A86878B8B979BB7B7ABA19
:103F9000BE7E7FBF7DBDBC7CB47475B577B7B67689
:103FA00072B2B373B17170B05090915193535292F9
:103FB00096565797559594549C5C5D9D5F9F9E5E69
:103FC0005A9A9B5B99595898884849894B8B8A4AD9
:103FD0004E8E8F4F8D4D4C8C448485458747468649
:103FE00082424383418180444080250211041309A9
:103FF000141B0813041A8B04131D151B0827041A1D
:104000009F041335161B083F04E12D01020304042D
:0C4010001808060708090204061E00003C
:0400000508000131BD
:00000001FF
